:020000040800F2
:1000000010C70020554B0008890300088B03000827
:100010008F03000893030008970300080000000006
:100020000000000000000000000000009B0300082A
:100030009D030008000000009F030008A1030008C2
:100040006F4B00086F4B00086F4B00086F4B0008A8
:100050006F4B00086F4B00086F4B00086F4B000898
:100060006F4B0008653800086F4B00086F4B0008A5
:100070006F4B00086F4B00086F4B00086F4B000878
:100080006F4B00086F4B00086F4B00086F4B000868
:100090006F4B00086F4B00086F4B00086F4B000858
:1000A0006F4B00086F4B00086F4B00086F4B000848
:1000B0006F4B00086F4B00086F4B00086F4B000838
:1000C0006F4B00086F4B00086F4B00086F4B000828
:1000D0006F4B0008C94A0008B72F0008DF3D000831
:1000E0006F4B00086F4B00086F4B00086F4B000808
:1000F0006F4B00086F4B00086F4B00086F4B0008F8
:100100006F4B00086F4B00086F4B00086F4B0008E7
:100110006F4B00086F4B00086F4B0008F527000875
:100120006F4B00086F4B00086F4B00086F4B0008C7
:100130006F4B00086F4B00086F4B00086F4B0008B7
:100140006F4B00086F4B00086F4B00086F4B0008A7
:100150006F4B00086F4B00086F4B00086F4B000897
:100160006F4B00086F4B00086F4B00086F4B000887
:100170006F4B00086F4B0008350A00086F4B0008F2
:100180006F4B00086F4B000800F002F800F05CF8BD
:100190000AA090E8000C82448344AAF10107DA45E2
:1001A00001D100F051F8AFF2090EBAE80F0013F0D8
:1001B000010F18BFFB1A43F00103184730840000F9
:1001C000508400000A444FF0000C10F8013B13F07B
:1001D000070408BF10F8014B1D1108BF10F8015BA0
:1001E000641E05D010F8016B641E01F8016BF9D193
:1001F00013F0080F1EBF10F8014BAD1C0C1B09D1EA
:100200006D1E58BF01F801CBFAD505E014F8016B5B
:1002100001F8016B6D1EF9D59142D6D370470000ED
:100220000023002400250026103A28BF78C1FBD8FF
:10023000520728BF30C148BF0B6070471FB507F099
:10024000AEFD1FBD10B510BD06F0EEFF1146FFF765
:10025000F5FF00F009F807F00CF803B4FFF7F2FF20
:1002600003BC04F0CDFB000008B572B6A82004F072
:1002700045FB42F21071542002F07CFA4FF47A717F
:10028000542002F090FA4FF6FF71542003F030FA38
:1002900000F090F903F00AF8344802F023FB00F074
:1002A00097FD44F2682001F0CBF901F02CFB01F03E
:1002B0007BFA03F0C9FD2E4803F030FD03F0C4FBC8
:1002C000012026230022014600904FF4A06000F098
:1002D00013FC012027230022114600904FF4A06058
:1002E00000F00AFC20202349088062B60020224941
:1002F000086000BF2148808901B2002002F090FB15
:100300001E4890ED0E0ABDEEC00A10EE100A01B2B2
:10031000012002F085FB1A4890ED030ABDEEC00AE9
:1003200010EE100A01B2022002F07AFB1448B0F974
:100330002210032002F074FB124890ED050ABDEE76
:10034000C00A10EE100A01B2042002F069FB0C484A
:1003500090ED070ABDEEC00A10EE100A01B20520AA
:1003600002F05EFB02F088FBC4E70000004400409E
:10037000004800401A040240BC82414298BF00205D
:1003800048BD002090BD0020704700BFFEE700BFC1
:10039000FEE700BFFEE700BFFEE77047704770470B
:1003A000704700000CB5002001900090764800686E
:1003B00040F480307449086000BF7348006800F45E
:1003C000003000900198401C0190009818B90198E5
:1003D000B0F5A04FF1D16C48006800F4003010B1C6
:1003E0000120009001E0002000900098012846D1F3
:1003F00065484030006840F08050634940310860F3
:100400006248006840F44040604908605E48083037
:1004100000685D49083108600846006840F4004003
:1004200008600846006840F4A05008605848091F5A
:100430000860081F006840F08070091F086000BF56
:100440005148006800F000700028F9D040F20570B3
:10045000504908604C480830006820F003004A49C1
:10046000083108600846006840F00200086000BFDC
:1004700045480830006800F00C000828F8D10CBD91
:1004800010B54548006840F47000434908603E4894
:10049000006840F001003C49086000203A490831FA
:1004A0000860394800683D490840374908603C48C1
:1004B000091D0860081F006820F48020091F0860DB
:1004C000002031490C310860FFF76CFF4FF00060ED
:1004D00031498039086010BD70B500200022022328
:1004E00000240221284D08352D6805F00C0020B1AC
:1004F000042806D0082834D107E02A4D2A4E35605A
:1005000033E02A4D284E35602FE01F4D2D1D2D68FC
:10051000C5F380541C4D2D1D2D6805F03F0154B1CD
:10052000224DB5FBF1F5184E361D3668C6F3881618
:1005300005FB06F209E01B4DB5FBF1F5124E361D29
:100540003668C6F3881605FB06F20F4D2D1D2D6883
:10055000C5F301456D1C6B00B2FBF3F5124E35601F
:1005600003E0104D104E356000BF00BF064D08354A
:100570002D68C5F303150E4E705D0B4D2D68C540FB
:10058000094E356070BD0000003802400070004028
:1005900008544007003C024088ED00E0FFFFF6FEF3
:1005A000103000240024F4000000002000127A0023
:1005B000040000201CB50121022004F07FFE03206E
:1005C000009001208DF8040000208DF80600032023
:1005D0008DF8050001208DF807006946034804F0F6
:1005E000CFFB0321014804F049FC1CBD000402407C
:1005F00010B50A2004F09CF910BD10B5FD48006844
:1006000020F44030FB4908600846006840F4803020
:1006100008600846006820F440400860084600680A
:1006200040F4804008608020088340000883FFF782
:10063000DFFF8020EF494883FFF7DAFF4FF4807037
:10064000EC49488310BD10B5EA48006820F44030FA
:10065000E84908600846006840F4803008600846B1
:10066000006820F4404008600846006840F480407C
:10067000086080204883FFF7BBFF4FF48070DD499E
:100680000883FFF7B5FF8020DA490883FFF7B0FF42
:1006900010BD70B50446D748006820F44040D549E5
:1006A00008600846006840F48040086000261BE0AF
:1006B00004F0800018B18020CE49088302E0802039
:1006C000CC4948836006040EFFF792FF4FF4807018
:1006D000C8490883FFF78CFF4FF48070C5494883F1
:1006E000FFF786FF701CC6B2082EE1DB8020C149EF
:1006F00008830846006820F4404008600846006807
:100700000860FFF775FF4FF48070BA490883FFF760
:100710006FFFB848006900F080054FF48070B5495C
:100720004883FFF765FF284670BD2DE9F0418046FC
:100730000D461646002723E0FFF75FFF4046FFF710
:10074000A8FF0446012C02D1FFF77DFF16E02846E2
:10075000FFF79FFF0446012C02D1FFF774FF0DE065
:100760003046FFF796FF0446012C02D1FFF76BFFDE
:1007700004E0FFF768FF04B904E000BF781CC7B2CB
:10078000C82FD9DB00BF2046BDE8F0811CB5012190
:10079000084604F093FD4FF4C070009001208DF8DE
:1007A000040000208DF8060003208DF805000120CC
:1007B0008DF8070069468F4804F0E2FA80208D49E1
:1007C0000883400008831CBD10B5002405E0601CB0
:1007D00084B2142C01D1002010BDA4221221422089
:1007E000FFF7A3FF0128F2D0002410E001E0002071
:1007F000F2E7814800EB440042787F4810F814107B
:100800004220FFF792FF0128F1D0601C84B27B48A0
:1008100000788442EADB0120DEE71CB5012004F009
:100820002EFC0121084604F049FD002208217148F0
:1008300004F031FB4FF48070009003208DF8050028
:1008400002208DF8040000208DF8060001208DF8AC
:1008500007006946674804F093FA4FF0A0614FF42F
:10086000C00004F00FFC1CBD00B597B00121084684
:1008700004F035FD0121880504F020FD012113203D
:1008800004F01CFD4FF4CA60029002208DF80C00A9
:1008900003208DF80D0000208DF80E0001208DF84A
:1008A0000F0002A9534804F06BFA4FF470700290E5
:1008B00002A9534804F064FA1320029002A9514897
:1008C00004F05EFA0D2204214A4804F0E4FA0D22F5
:1008D0000621484804F0DFFA0D220921454804F0BA
:1008E000DAFA0D220A21434804F0D5FA0D2200213C
:1008F000444804F0D0FA0D220121424804F0CBFA1A
:100900000D2204213F4804F0C6FA0D2206213C487E
:1009100004F0C1FA0D220721394804F0BCFA0D2277
:100920000821374804F0B7FA0D220921344804F0B1
:10093000B2FA0020ADF81000ADF812002020ADF89A
:1009400014008020ADF816000020ADF81800ADF8B6
:100950001A00ADF81C0004A805F084F80121082055
:1009600005F000F90121102005F0FCF801204E23CC
:100970000246002100904FF4A06000F0BDF8012075
:1009800005F0CFF8012005F0DBF81F4805F024F949
:1009900000BF1D4805F049FA0028FAD14FF0007059
:1009A00008901A4809901A480A9000200B90F020ED
:1009B0000C9000200D904FF480600E9080000F90FE
:1009C00040101090C010119040021290002013901F
:1009D0000320149000201590169008A90A4805F0ED
:1009E0009DF901200B49087048700020888017B0DD
:1009F00000BD0000000002401A0000202A00002074
:100A00000004024000100240286402402800055003
:100A1000480100201400002010B5FFF7B7FEFFF7D3
:100A200023FFFFF7FAFEFFF7CFFE08B9002010BD45
:100A30000120FCE72C48006900F0080048B10820BC
:100A4000294948612948007818B100202749888041
:100A500048702548006900F0100068B31020224952
:100A600048612248407838BB2048B0F90400C828C3
:100A700023DA1F48006820F001001D4908601B4868
:100A8000B0F90400C0EB00101A4901EB001018493E
:100A90000C3108601648006840F0010014490860F5
:100AA0001148006840F001000F4908600F48808835
:100AB000401C00B20D49888004E001200B494870B9
:100AC000002008700848006900F0010010B1012002
:100AD000054948610448006900F0040010B1042091
:100AE00001494861704700000000055014000020D3
:100AF00028640240480100202DE9F84307460C46CF
:100B000015461E46DDF82080384604F043F88DF87F
:100B10000060E0B28DF80100E8B28DF802008DF8B7
:100B20000380684604F03BF8BDE8F8830821CA0159
:100B3000F84B1A8380225A8311E000F0800222B120
:100B40004FF48072F34B1A8303E04FF48072F14B41
:100B50005A838022EF4B1A835A834206100E0A00F2
:100B6000A1F10103D9B2E8D170470821CA01E94BCC
:100B70005A8380225A8311E000F0800222B14FF4A0
:100B80008072E44B1A8303E04FF48072E14B5A8386
:100B90008022E04B1A835A834206100E0A00A1F10C
:100BA0000103D9B2E8D1704730B504460D4605F1CE
:100BB000B001C8B2FFF7D9FF102141EA1410FFF7C6
:100BC000D4FF04F00F0141F00100FFF7CEFF30BD6C
:100BD00030B5002415E004F1B001C8B2FFF7C5FF3D
:100BE0000120FFF7C2FF1020FFF7BFFF002504E040
:100BF0000020FFF79BFF681CC5B2802DF8DB601C4E
:100C0000C4B2082CE7DB30BD09E041F6132100BF78
:100C10000A00A1F1010399B2FAD1421ED0B2002814
:100C2000F3D1704730B504462546E11704EB117146
:100C30000911A4EB0111C8B2FFF797FF2546E11790
:100C400004EB117109111031C8B2FFF78EFF30BDEE
:100C500010B504462020FFF788FF2046FFF785FFE8
:100C600010BD30B505460C462120FFF77EFF284613
:100C7000FFF77BFF2046FFF778FF30BD30B5054614
:100C80000C462220FFF771FF2846FFF76EFF204633
:100C9000FFF76BFF30BD10B5044644F04000FFF78E
:100CA00064FF10BD10B504468120FFF75EFF2046AB
:100CB000FFF75BFF10BD10B504468D20FFF755FF11
:100CC00044F01000FFF751FF10BD10B5044644F08A
:100CD000A000FFF74AFF10BD10B5044644F0A40081
:100CE000FFF743FF10BD10B5044644F0A600FFF720
:100CF0003CFF10BD10B50446A820FFF736FF204684
:100D0000FFF733FF10BD10B5044644F0AE00FFF707
:100D10002CFF10BD10B5044644F0B000FFF725FFCE
:100D200010BD10B5044644F0C000FFF71EFF10BD13
:100D300010B50446D320FFF718FF2046FFF715FF34
:100D400010BD10B50446D520FFF70FFF2046FFF772
:100D50000CFF10BD10B50446D920FFF706FF204652
:100D6000FFF703FF10BD10B50446DA20FFF7FDFEC4
:100D700044F00200FFF7F9FE10BD10B50446DB2079
:100D8000FFF7F3FE2046FFF7F0FE10BD00B5E320AD
:100D9000FFF7EBFE00BD70B50646002415E004F138
:100DA000B001C8B2FFF7E1FE0120FFF7DEFE102020
:100DB000FFF7DBFE002504E03046FFF7B7FE681CB6
:100DC000C5B2802DF8DB601CC4B2082CE7DB70BD17
:100DD0001CB54FF47860009001208DF804000320CA
:100DE0008DF8050000208DF806008DF80700012120
:100DF000102004F063FA6946464803F0C1FF8020E2
:100E0000444908834883800048833220FFF7FCFE72
:100E10004FF400703F490883AE20FFF7A6FE002084
:100E2000FFF7A3FE1020FFF7A0FE4020FFF79DFE76
:100E30008120FFF79AFECF20FFF797FEA120FFF752
:100E400094FEC820FFF791FEA620FFF78EFEA82093
:100E5000FFF78BFE3F20FFF788FED320FFF785FECC
:100E60000020FFF782FED520FFF77FFE8020FFF7EE
:100E70007CFED920FFF779FEF120FFF776FEDA201D
:100E8000FFF773FE1220FFF770FEDB20FFF76DFE09
:100E90004020FFF76AFE2020FFF767FE0220FFF7E1
:100EA00064FE8D20FFF761FE1420FFF75EFEA42094
:100EB000FFF75BFEA620FFF758FEAF20FFF755FEB9
:100EC0000020FFF768FF00210846FFF76DFE1CBDFC
:100ED000F0B505460C4600277F2D01DC3F2C00DDD8
:100EE000F0BD2046E11704EB5171C1F3C706E117CD
:100EF00004EB5171C910A4EBC10201219140CFB2A2
:100F000031462846FFF750FE3846FFF70FFE00BF78
:100F1000E6E70000001002402DE9F04105460E46CC
:100F200017464FF000080024A7F1200000F0FF084A
:100F30007A2D02DD0025701CC6B231462846FFF727
:100F400033FE002409E008EB4801FE4A02EB4101B0
:100F5000085DFFF7EBFD601CC4B2062CF3DBBDE8B7
:100F6000F0812DE9F0430446884615464FF000090C
:100F70000026002720E0E85D203800F0FF097E2CE5
:100F800004DD002408F1010000F0FF08414620467E
:100F9000FFF70AFE002609E009EB4901E94A02EBE6
:100FA0004101885DFFF7C2FD701CC6B2062EF3DB5F
:100FB000A01DC4B2781CC7B2E85D0028DBD1BDE833
:100FC000F0832DE9F04305460E4617464FF0000921
:100FD0000024A04632E017F80800203800F0FF098E
:100FE000782D02DD0025701CC6B231462846FFF779
:100FF000DBFD002407E004EB0911D34A505CFFF746
:1010000095FD601CC4B2082CF5DB701CC1B22846EB
:10101000FFF7CAFD002408E004EB09110831CA4AB1
:10102000505CFFF783FD601CC4B2082CF4DB05F1B3
:101030000800C5B208F1010000F0FF0817F8080029
:101040000028C8D1BDE8F0832DE9F04385B00746FC
:1010500088461446002625461422BC49684606F0F8
:10106000A9F8B14635B908F0FF01F8B23022FFF710
:1010700053FF73E0002D38DA6D42644204E0701CC7
:10108000C6B20A2095FBF0F50A20B5FBF0F100FB93
:1010900011500028F3D1002DF1D12D208DF8000042
:1010A0000EE00A2094FBF0F100FB11403030C2B298
:1010B0003046711ECEB20DF800200A2094FBF0F4E9
:1010C0000A2094FBF0F100FB11400028E9D1002C2C
:1010D000E7D1002109F101000DF8001008F0FF012F
:1010E000F8B26A46FFF73DFF38E004E0701CC6B274
:1010F0000A2095FBF0F50A20B5FBF0F100FB11503A
:101100000028F3D1002DF1D130208DF80500701E9C
:10111000C6B2B1460EE00A2094FBF0F100FB11408C
:101120003030C2B23046711ECEB20DF800200A2017
:1011300094FBF0F40A2094FBF0F100FB114000282E
:10114000E9D1002CE7D1002109F101000DF80010D0
:1011500008F0FF01F8B26A46FFF703FF05B0BDE8EB
:10116000F0832DE9F0472DED068B82B0804689464D
:10117000B0EE408AF0EE608A154675A000680190D6
:101180004FF0010A002451EC180B06F085F809EE27
:10119000100A9FED700B53EC102B51EC180B06F05E
:1011A000B9FA0ED130208DF8040009F0FF0108F0E3
:1011B000FF0001AAFFF7D5FE02B0BDEC068BBDE82B
:1011C000F0879FED640B53EC102B51EC180B06F0DD
:1011D00051FB79D251EC180B06F051F841EC180B89
:1011E000B1EE490AB0EE409A002704E00AEB8A000B
:1011F0004FEA400A7F1CAF42F8DB504606F023FB63
:1012000041EC1A0B53EC182B06F070FB41EC180B59
:1012100051EC180B06F040F809EE100A06E0641CC9
:10122000B2EE040AC9EE000AB0EE609ABDEEC90A39
:1012300010EE100A0A2190FBF1F201FB12000028C7
:10124000EDD1BDEEC90A10EE100A0028E7D1A41CAA
:1012500026461EE0601E711B491E884200D1641E96
:1012600051EC180B06F092FA0A2190FBF1F201FB07
:1012700012003030C1B2601E044601AA11549FED25
:10128000370B53EC102B51EC180B06F0EBF841EC3C
:10129000180B51EC180B06F079FA0A2190FBF1F2C9
:1012A00001FB12000028D5D151EC180B06F06EFAA4
:1012B0000028CFD12D208DF8040035B90021701BF6
:1012C000401E01AA115489E005E02E21701B401E2A
:1012D00001AA115482E0002704E00AEB8A004FEAD9
:1012E000400A7F1CAF42F8DB504606F0ACFA41ECF6
:1012F0001A0B53EC182B06F0F9FA41EC180B51ECD1
:10130000180B05F0C9FF09EE100A06E0641CB2EEE6
:10131000040AC9EE000AB0EE609ABDEEC90A10EEEA
:10132000100A0A2190FBF1F201FB12000028EDD116
:10133000BDEEC90A10EE100A0028E7D1641C26464B
:101340002FE00000A4830008B47D0008CC850008CD
:10135000200000000000000000000000000000006D
:1013600000002440601E711B491E884200D1641E8B
:1013700051EC180B06F00AFA0A2190FBF1F201FB7E
:1013800012003030C1B2601E044601AA11541FED94
:101390000D0B53EC102B51EC180B06F063F841ECDD
:1013A000180B51EC180B06F0F1F90A2190FBF1F241
:1013B00001FB12000028D5D151EC180B06F0E6F91C
:1013C0000028CFD12DB90021701B401E01AA115455
:1013D00004E02E21701B401E01AA115409F0FF01E8
:1013E00008F0FF0001AAFFF7BCFD00BFE4E670B5FE
:1013F00005460E46002431462846FFF7D5FB04E09B
:10140000FF20FFF793FB601CC4B2032CF8DB70BD18
:1014100070B505460E46002431462846FFF7C4FB4A
:1014200004E00020FFF782FB601CC4B2032CF8DB51
:1014300070BD70B50646002415E004F1B001C8B2D5
:10144000FFF793FB0020FFF790FB1020FFF78DFBC9
:10145000002504E03046FFF769FB681CC5B2802D0B
:10146000F8DB601CC4B2082CE7DB70BD30B500248B
:1014700015E004F1B001C8B2FFF777FB0020FFF7D9
:1014800074FB1020FFF771FB002504E00020FFF73C
:101490004DFB681CC5B2802DF8DB601CC4B2082C63
:1014A000E7DB30BD2DE9FF4F84B081468A4600203E
:1014B000039002900698A0EB09050798A0EB0A0696
:1014C000CDF80490CDF800A0002D01DD012705E046
:1014D0000DB9002702E04FF0FF376D42002E02DD0C
:1014E0004FF0010806E016B94FF0000802E04FF097
:1014F000FF387642B54201DD2C4600E034464FF01D
:10150000000B21E0009AD1B2019AD0B2FFF7E0FCC3
:101510000398284403900298304402900398A04214
:1015200005DD0398001B0390019838440190029850
:10153000A04205DD0298001B0290009840440090F4
:101540000BF101001FFA80FB601C8345DADD08B057
:10155000BDE8F08FF0B504460D4616461F462B46F3
:10156000324629462046FFF79DFF3B462246294644
:101570002046FFF797FF3B46324639462046FFF7A5
:1015800091FF3B46324629463046FFF78BFFF0BDC0
:101590002DE9F04306460F469046002445460320B9
:1015A000A0EB480948E03A1BD1B2721BD0B2FFF75A
:1015B0008FFC3A1BD1B27219D0B2FFF789FC7A19AD
:1015C000D1B2321BD0B2FFF783FC3A1BD1B2721BEF
:1015D000D0B2FFF77DFC7A1BD1B2321BD0B2FFF73D
:1015E00077FC3A19D1B27219D0B2FFF771FC7A1BAD
:1015F000D1B23219D0B2FFF76BFC7A19D1B23219DD
:10160000D0B2FFF765FC3A19D1B2721BD0B2FFF726
:101610005FFC641CB9F1000F03DAA000801D814457
:1016200004E0601B80000A3081446D1E7A19D1B23B
:101630003219D0B2FFF74CFCAC42B4DDBDE8F08308
:1016400030B58BB00446554804605548B0FBF4F5FE
:10165000524845600020514988600121084603F046
:101660002DFE0F20019002208DF8080003208DF838
:10167000090000208DF80A0001208DF80B0001A957
:10168000484803F07DFB01220021464803F003FC9B
:1016900001221146434803F0FEFB0122022141488A
:1016A00003F0F9FB012203213E4803F0F4FB012182
:1016B000084603F04CFE09950020ADF82000ADF877
:1016C0002800ADF8220008A94FF0804004F0CDFFBB
:1016D0006020ADF80C000120ADF80E000020059050
:1016E000ADF8180003A94FF0804005F053F8082129
:1016F000C80605F0DCF90120ADF80E0000200590C9
:1017000003A94FF0804005F07EF80821C80605F0D7
:10171000D7F90120ADF80E000020059003A94FF085
:10172000804005F0BDF80821C80605F0D6F9012073
:10173000ADF80E000020059003A94FF0804005F0A1
:1017400015F90821C80605F0D1F90121880704F030
:10175000F7FF0121880705F011F80BB030BD10B577
:101760000A460E4B5B68534344F62064B3FBF4F324
:1017700099B2012802D1830759630EE0022802D1F1
:101780004307996309E0032803D14FF08043D963ED
:1017900003E0042801D10307196410BDC8BC002070
:1017A00000BD01050000024000B589B00121042000
:1017B00003F084FDC020079002208DF82000032054
:1017C0008DF8210000208DF8220001208DF82300E3
:1017D00007A9FE4803F0D4FA02220621FB4803F0D1
:1017E0005AFB02220721F94803F055FB012108208A
:1017F00003F064FD4FF44050079002208DF8200064
:1018000003208DF8210000208DF8220001208DF8A2
:10181000230007A9EE4803F0B3FA02220C21EC489A
:1018200003F039FB02220D21E94803F034FB0121CA
:10183000022003F08CFDE74804F06AFE04A9E548A5
:1018400004F013FF4FF6FF7005900020ADF8100074
:10185000ADF81800ADF8120004A9DE4804F005FF49
:1018600000231A460321DB4805F073FC01A805F0AC
:101870000AFB0620ADF80C0001A9D64805F0CCFA09
:101880000121D44805F0A6FB0020D249243108608C
:101890000121D04804F072FF0121042003F057FD1C
:1018A000CD4804F035FE04A9CB4804F0DEFE4FF627
:1018B000FF7005900020ADF81000ADF81800ADF8ED
:1018C000120004A9C44804F0D0FE00231A460321E4
:1018D000C14805F03EFC01A805F0D5FA0620ADF898
:1018E0000C0001A9BC4805F097FA0121BA4805F09F
:1018F00071FB0020B849243108600121B64804F08A
:101900003DFF09B000BD9FEDB50AB54880ED000A66
:101910009FEDB40A80ED010A9FEDB30A80ED020A43
:101920009FEDB10A80ED070AB3EE0E0AAF4880EDD5
:10193000000A9FEDAD0A80ED010A9FEDAB0A80ED34
:10194000020A9FEDA90A80ED070A9FEDA70AA848A1
:1019500080ED000A9FEDA40A80ED010A9FEDA20A26
:1019600080ED020A9FEDA00A80ED070A70479948B2
:101970002430006800B29A494884002095492431F7
:101980000860704794482430006800B29949488440
:101990000020914924310860704770B52DED0C8B03
:1019A0000546FFF7E4FF94480068006A9249096819
:1019B00048629148006804628F4800680068441BD0
:1019C0008D490968096A022202FB11418A4A12689C
:1019D000526A881805F037FF41EC1B0B86480068F7
:1019E00090ED061BB0EE410AF0EE610A53EC102BAD
:1019F00051EC1B0B05F07AFF41EC190B7E4909688D
:101A0000086A05F020FF41EC1D0B7B48006890ED53
:101A1000041BB0EE410AF0EE610A53EC102B51ECBE
:101A20001D0B05F063FF41EC1B0B73490968096A44
:101A3000601A05F008FF41EC1D0B6F48006890ED3F
:101A4000021BB0EE410AF0EE610A53EC102B51EC90
:101A50001D0B05F04BFF41EC1C0B53EC1B2B05F051
:101A60004DFC41EC1A0B53EC192B05F047FC41ECF3
:101A7000180B05F08BFE06463046BDEC0C8B70BD96
:101A800070B52DED0C8B0546FFF77CFF5B480068B9
:101A9000006A5A4909684862584800680462574811
:101AA00000680068441B55490968096A022202FB64
:101AB0001141524A1268526A881805F0C4FE41EC7E
:101AC0001B0B4E48006890ED061BB0EE410AF0EE8D
:101AD000610A53EC102B51EC1B0B05F007FF41EC96
:101AE000190B46490968086A05F0ADFE41EC1D0B6B
:101AF0004248006890ED041BB0EE410AF0EE610A26
:101B000053EC102B51EC1D0B05F0F0FE41EC1B0BC0
:101B10003A490968096A601A05F095FE41EC1D0B07
:101B20003648006890ED021BB0EE410AF0EE610A03
:101B300053EC102B51EC1D0B05F0D8FE41EC1C0BA7
:101B400053EC1B2B05F0DAFB41EC1A0B53EC192B71
:101B500005F0D4FB41EC180B05F018FE06463046A4
:101B6000BDEC0C8B70BD10B52249B1F92200FFF716
:101B700087FF22490968896A084420490968886200
:101B80001749B1F92200FFF708FF1B490968896A64
:101B9000084419490968886218480068806A44F254
:101BA0006821884203DD08461449096888621348A1
:101BB0000068806A1249884203DA08460F490968BA
:101BC00088620D480068806A1CE00000000802403E
:101BD000000C02400004004000080040000048449F
:101BE00048BD002000803B450000000090BD002063
:101BF000D8BD00206CBD00202C000020300000204B
:101C000098BDFFFF44F26821884203DD0846FE4983
:101C100009688862FC480068806AFC49884203DAE7
:101C20000846F94909688862F9480068806A00280E
:101C30000BDD00210120FFF792FDF5480068008DC3
:101C400081B20220FFF78BFD0BE0F1480068008DA8
:101C5000404281B20120FFF782FD00210220FFF700
:101C60007EFDE9480068806A00280BDDE6480068D0
:101C7000008D81B20320FFF772FD00210420FFF7E1
:101C80006EFD0BE000210320FFF769FDDE480068D0
:101C9000008D404281B20420FFF761FD10BD10B5F8
:101CA0002DED088B1FED300ADA4880ED000A1FED9C
:101CB000320AD94880ED000A1FED350AD74880ED79
:101CC000000AFFF754FED64890ED050A80ED060A9B
:101CD000B0F9220000EE100AB8EEC00A10EE101A99
:101CE000084605F0EBFF41EC1B0B9FEDCE0B53ECD0
:101CF000102B05F0FBFD41EC1A0B9FEDCC0B53ECC8
:101D0000102B05F0AFFB41EC190B9FEDCA0B53EC08
:101D1000102B05F0A7FB41EC180B05F0BDFAC049EC
:101D20004861C64890ED000AC54880ED000A0846A3
:101D300090ED070AD0ED050A30EE600ABF4880ED4D
:101D4000000A084690ED000ABC48D0ED000A20EEDB
:101D5000200AF2EE040A20EE200AAE4880ED000AC6
:101D6000B64890ED000AB648D0ED000A30EE600AA1
:101D70000846D0ED020A20EE200AF2EE040A20EE18
:101D8000200AA64880ED000A084690ED010AAB48FB
:101D9000D0ED000A20EE200AF2EE040A20EE200A1E
:101DA0009D4880ED000A084690ED040A9A48D0ED5F
:101DB000000A30EE200A084680ED040A90ED040A7D
:101DC000DFEDA00AB4EEE00AF1EE10FA04DD9FEDBB
:101DD0009D0A80ED040A0DE0914890ED040ADFEDC4
:101DE0009A0AB4EEE00AF1EE10FA03D29FED960AD9
:101DF00080ED040A874890ED000A8848D0ED000A7B
:101E000030EE200A8648D0ED040A30EE200A80ED3C
:101E1000030ABDEC088B10BD10B52DED088B1FED2E
:101E20008E0A8A4880ED000A1FED910A884880EDED
:101E3000000A1FED930A874880ED000AFFF7A2FD14
:101E4000854890ED050A80ED060AB0F9220000EE03
:101E5000100AB8EEC00A10EE101A084605F02EFF60
:101E600041EC1B0B9FED6F0B53EC102B05F03EFD6F
:101E700041EC1A0B9FED6D0B53EC102B05F0F2FAB1
:101E800041EC190B9FED6B0B53EC102B05F0EAFAAC
:101E900041EC180B05F000FA6F49486100204884B6
:101EA0006E4890ED000A6E4880ED000A084690EDFD
:101EB000070A9FED6C1AC0EE010A90ED050A30EE9C
:101EC000C00A664880ED000A084690ED000A6348A3
:101ED000D0ED000A20EE200ADFED620A20EE200A93
:101EE0005A4880ED000A5D4890ED000A5C48D0ED4C
:101EF000000A30EE600A0846D0ED020A20EE200A01
:101F0000DFED580A20EE200A524880ED000A08460C
:101F100090ED010A5148D0ED000A20EE200ADFEDD5
:101F2000510A20EE200A4A4880ED000A084690ED4A
:101F3000040A4748D0ED000A30EE200A084680ED3A
:101F4000040A90ED040ADFED3F0AB4EEE00AF1EE78
:101F500010FA04DD9FED3B0A80ED040A0DE03E48D7
:101F600090ED040ADFED380AB4EEE00AF1EE10FA63
:101F700003D29FED350A80ED040A344890ED000A43
:101F80003448D0ED000A30EE200A3348D0ED040A80
:101F900030EE200A80ED030ABDEC088B10BD10B5B1
:101FA0002DED0A8B1FEDF00A1A4880ED000A1FED97
:101FB000F20A194880ED000A1FEDF50A174880ED76
:101FC000000AFFF7D4FC284890ED050A80ED060AC8
:101FD00090ED060A10EE101A084605F06FFE41EC6F
:101FE000190B0F48B0F9220000EE100AB8EEC00A33
:101FF00010EE101A084605F061FE41EC1C0B9FED37
:102000001B0B53EC102B35E02C00002098BDFFFF7C
:10201000300000203C000020400000204400002050
:1020200048BD00200000000000408F40000000007C
:102030000000144000000000000ABE4038000020EC
:102040003400002000D0844600D084C65000002018
:1020500054000020580000206CBD00204C000020DF
:10206000480000200000C84290BD00200000000091
:102070000080764005F03AFC41EC1B0B1FED130B82
:1020800053EC102B05F0EEF941EC1A0B53EC192B25
:1020900005F034F941EC180B05F0FEF8FE494861F3
:1020A000FE4890ED000AFE4880ED000A084690EDDB
:1020B000070AD0ED050A30EE600AF84880ED000A04
:1020C000084690ED000AF548D0ED000A20EE200AFF
:1020D0005FED1C0A20EE200AF24880ED000AEF486E
:1020E00090ED000AEE48D0ED000A30EE600A084696
:1020F000D0ED020A20EE200A5FED260A20EE200A2B
:10210000E94880ED000A084690ED010AE348D0ED69
:10211000000A20EE200AF2EE040A20EE200AE3482C
:1021200080ED000A084690ED040AE048D0ED000A70
:1021300030EE200A084680ED040A90ED040A5FEDB7
:102140003F0AB4EEE00AF1EE10FA04DD1FED430A97
:1021500080ED040A0DE0D04890ED040A5FED460AD8
:10216000B4EEE00AF1EE10FA03D21FED490A80ED59
:10217000040ACC4890ED000ACB48D0ED000A30EEBE
:10218000200AC548D0ED040A30EE200A80ED030A8B
:10219000BDEC0A8B10BD10B52DED0A8B9FEDC40A66
:1021A000C44880ED000A9FEDC20AC34880ED000AD2
:1021B0009FEDBF0AC14880ED000A9FEDBD0AC048EF
:1021C00080ED060AFFF7DEFBBD4890ED050A80EDC5
:1021D000060A90ED060A10EE101A084605F06EFD8C
:1021E00041EC190BB748B0F9220000EE100AB8EE26
:1021F000C00A10EE101A084605F060FD41EC1C0BF9
:102200001FED660B53EC102B05F070FB41EC1B0B24
:102210001FED780B53EC102B05F024F941EC1A0B51
:1022200053EC192B05F06AF841EC180B05F034F863
:10223000A3494861A44890ED000AA44880ED000A33
:10224000084690ED070AD0ED050A30EE600A9E4878
:1022500080ED000A084690ED000A9B48D0ED000A88
:1022600020EE200A5FED810A20EE200A914880EDE1
:10227000000A954890ED000A9448D0ED000A30EE2F
:10228000600A0846D0ED020A20EE200A5FED8B0AB4
:1022900020EE200A894880ED000A084690ED010AE8
:1022A0008948D0ED000A20EE200AF2EE040A20EE62
:1022B000200A814880ED000A084690ED040A7E4815
:1022C000D0ED000A30EE200A084680ED040A90EDB9
:1022D000040A5FEDA40AB4EEE00AF1EE10FA04DDA0
:1022E0001FEDA80A80ED040A0DE0754890ED040A80
:1022F0005FEDAB0AB4EEE00AF1EE10FA03D21FED87
:10230000AE0A80ED040A6B4890ED000A6B48D0EDF0
:10231000000A30EE200A6A48D0ED040A30EE200AA6
:1023200080ED030ABDEC0A8B10BD10B52DED0E8BB0
:102330009FED5F0A664880ED000A9FED5D0A6548E3
:1023400080ED000A9FED5A0A634880ED000AFFF70E
:102350000EFBFFF717FB614890ED050A80ED060ABA
:102360005848B0F9220000EE100AB8EEC00A10EE8C
:10237000101A084605F0A2FC41EC1E0B1FEDD70B0E
:1023800053EC102B05F0B2FA41EC1D0B1FEDD90BED
:1023900053EC102B05F066F841EC1C0B1FEDDB0B2A
:1023A00053EC102B05F05EF841EC1A0B4C48B0F9D9
:1023B000220000EE100AB8EEC00A10EE101A08460D
:1023C00005F07CFC41EC1E0B1FEDEA0B53EC102BCF
:1023D00005F08CFA41EC1D0B1FEDEC0B53EC102BB0
:1023E00005F040F841EC1C0B1FEDEE0B53EC102BED
:1023F00005F038F841EC1B0B53EC1A2B04F07EFF70
:1024000041EC190B9FED370B53EC102B05F02AF81C
:1024100041EC180B04F040FF30494861002030497E
:10242000488428494884314890ED000A304880EDBE
:10243000000A2A4890ED070A1FEDF61AC0EE010ABD
:1024400090ED050A30EEC00A284880ED000A2348C6
:1024500090ED000A2548D0ED000A20EE200ADFEDBD
:10246000250A20EE200A1A4880ED000A1F4890ED48
:10247000000A1F48D0ED000A30EE600A1748D0ED80
:10248000020A20EE200ADFED1B0A20EE200A124885
:1024900080ED000A11482FE090BD00203800002098
:1024A000340000203C0000204400002040000020B8
:1024B00000000000500000205400002058000020C0
:1024C000B4BD00206CBD00204C000020480000205E
:1024D00064000020680000206C000020D8BD0020AF
:1024E00048BD002000000000000000406000002007
:1024F0005C0000200000C84290ED010A9148D0ED38
:10250000000A20EE200A5FED050A20EE200A8E4820
:1025100080ED000A8D4890ED040A8B48D0ED000A4A
:1025200030EE200A894880ED040A90ED040ADFEDC0
:10253000880AB4EEE00AF1EE10FA04DD9FED840A99
:1025400080ED040A0DE0814890ED040ADFED810A78
:10255000B4EEE00AF1EE10FA03D29FED7E0A80EDB0
:10256000040A7D4890ED000A7C48D0ED000A30EE68
:10257000200A7648D0ED040A30EE200A80ED030AE6
:10258000BDEC0E8B10BD10B52DED028BB0EE408A68
:10259000F0EE608A0024F5EEC08AF1EE10FA0CDD50
:1025A000BDEEE80A10EE104AA1B20120FFF7D7F8FD
:1025B00000210220FFF7D3F80DE0B1EE680ABDEE6E
:1025C000C00A10EE104A00210120FFF7C8F8A1B29E
:1025D0000220FFF7C4F8B5EEC08AF1EE10FA0CDD68
:1025E000BDEEC80A10EE104AA1B20420FFF7B7F8FA
:1025F00000210320FFF7B3F80DE0B1EE480ABDEE6D
:10260000C00A10EE104A00210420FFF7A8F8A1B27A
:102610000320FFF7A4F8BDEC028B10BD10B52DED23
:10262000028BF0EE408AB0EE608A4D48C0ED008A21
:102630004C4880ED008A4A4890ED000AB5EEC00A89
:10264000F1EE10FA08DD90ED000ADFED470A30EEFA
:10265000200A80ED000A0FE0414890ED000AB5EE37
:10266000C00AF1EE10FA07D290ED000ADFED3E0A43
:1026700030EE600A80ED000A3A4890ED000AB5EEAF
:10268000C00AF1EE10FA08DD90ED000ADFED360A1F
:1026900030EE200A80ED000A0FE0324890ED000A8B
:1026A000B5EEC00AF1EE10FA07D290ED000ADFEDA8
:1026B0002E0A30EE600A80ED000A294890ED000AEB
:1026C000DFED2A0AB4EEE00AF1EE10FA04DB9FED2A
:1026D000270A80ED000A0DE0214890ED000ADFEDA9
:1026E000240AB4EEE00AF1EE10FA03D89FED200AB6
:1026F00080ED000A1B4890ED000ADFED1C0AB4EEE5
:10270000E00AF1EE10FA04DB9FED180A80ED000AF2
:102710000DE0144890ED000ADFED150AB4EEE00A72
:10272000F1EE10FA03D89FED120A80ED000A0D4871
:10273000D0ED000A0A4890ED000AFFF724FFBDEC37
:10274000028B10BD6000002068000020D8BD002072
:1027500000D0844600D084C6640000206C000020B5
:10276000700000207400002000007A4400204B46D6
:1027700000204BC63EB504460D460121082002F05C
:10278000E6FD0195A0B2ADF800000020ADF808000C
:10279000ADF8020069464C4803F067FF01214A4842
:1027A00003F0ECFF3EBD7FB504460D46012120201D
:1027B00002F0CDFD0295A0B2ADF804000020ADF806
:1027C0000C00ADF8060001A9404803F04EFF0122BD
:1027D00011463E4804F0EAFB01213C4803F0CEFFDD
:1027E000012037230022022100904FF4A060FEF761
:1027F00083F97FBD10B535481030008800F0010026
:10280000002860D031480C30008800F0010000281A
:1028100059D02F480078322802DB00202C4908705C
:1028200000BF2C480068401C2A49086028490878E5
:10283000087808460078052190FBF1F201FB1200B0
:1028400010BB2548C068244908612448C07A303844
:102850004FF47A7110FB01F12048007B303800EB17
:10286000C00202EB001001EB80011C48407B3038B5
:1028700000EB800001EB40001849897B08443038A8
:102880001549C86002F014F811480078322190FB15
:10289000F1F201FB120060B900F014FE104800785C
:1028A000401C0F49087008460078082801D1002014
:1028B000087007480078401C054908704FF6FE7004
:1028C00002491031088010BD000C00400014004087
:1028D000820000209400002098BF002088BF0020C4
:1028E0008100002010B596B004460121082002F0B6
:1028F000E5FC0121480402F02AFD07220521FC48DD
:1029000002F0C9FA07220621F94802F0C4FA602051
:10291000149002208DF8550000208DF856000120FB
:102920008DF8570002208DF8540014A9F04802F0E9
:1029300027FA4FF4E13010900020ADF84400ADF8D4
:102940004600ADF84800ADF84C000C20ADF84A0048
:1029500010A9204602F0B7FE0121204602F03BFFFD
:102960004021204603F01FF8012240F22551204665
:1029700002F0E7FF0121480502F0A0FCDD4803F06A
:102980002BF900BFDB4803F050FA0028FAD14FF0D2
:1029900000600190201D0290D748039040200490D1
:1029A00025200590002006904FF4806007900020BD
:1029B000089009900A904FF400300B9000200C9082
:1029C00001200D9000200E900F9001A9C94803F03E
:1029D000A5F90121C74803F0DBF901228021204637
:1029E00002F0A6FF16B010BD70B504460D4680215A
:1029F000204602F0D8FF2946204602F017FF00BF0C
:102A00008021204602F0C2FF0028F9D08021204614
:102A100002F0C9FF70BD01468888C0F30800704706
:102A200010B5C1F30722B44B223B03F81020012359
:102A300003EB4003B04C223CE15410BD70B5064698
:102A40000C46002505E021783046FFF7CDFF641CD9
:102A50006D1C012DF7DB70BD2DE9F04107460D46D9
:102A60001646002404E0295D3846FFF7BDFF241D0B
:102A7000B442F8D3BDE8F08170B50024FB219F4833
:102A8000FFF7B2FF6D219D48FFF7AEFF25219B4860
:102A9000FFF7AAFFFB346D34253400250BE0964880
:102AA0002238415D9548FFF79FFF93482238405DEB
:102AB0000444681CC5B2222DF1DBE1B28F48FFF758
:102AC00093FF70BD70B5FF218C48FFF78DFFFE218D
:102AD0008A48FFF789FFFF218848FFF785FFFE211D
:102AE0008648FFF781FF00241AE000250DE0C4EBC3
:102AF0000410834901EB0010465DFD2E00DDFD262C
:102B000031467E48FFF770FF6D1CF02DEFD3FE219C
:102B10007A48FFF769FFFE217848FFF765FF641CDC
:102B2000C82CE2D3002570BD10B50446AB21734814
:102B3000FFF75AFFCD217148FFF756FFEF216F488D
:102B4000FFF752FF282221466C48FFF785FF10BD92
:102B50002DE9F04105460C4617460026122167482C
:102B6000FFF742FF23216548FFF73EFF342163480A
:102B7000FFF73AFF05E03046761C295C5F48FFF717
:102B800033FF1E2E02DAA85D0028F4D1002C04DAEF
:102B90002D215A48FFF728FF64425A48844208DB37
:102BA00094FBF0F0303000F0FF0841465348FFF747
:102BB0001BFF554884420EDB524894FBF0F100FBAA
:102BC0001140514990FBF1F0303000F0FF084146D0
:102BD0004A48FFF709FF4D4884420EDB4A4894FB00
:102BE000F0F100FB1140494990FBF1F0303000F06A
:102BF000FF0841464148FFF7F7FE42F21070844259
:102C00000FDB424894FBF0F100FB114042F21071DF
:102C100090FBF1F0303000F0FF0841463748FFF7F5
:102C2000E3FEB4F57A7F10DB42F2107094FBF0F112
:102C300000FB11404FF47A7190FBF1F0303000F05E
:102C4000FF0841462D48FFF7CFFE642C0FDB4FF401
:102C50007A7094FBF0F100FB1140642190FBF1F0DD
:102C6000303000F0FF0841462448FFF7BDFE0A2C33
:102C70000EDB642094FBF0F100FB11400A2190FB75
:102C8000F1F0303000F0FF0841461C48FFF7ACFE81
:102C90000A2094FBF0F100FB1140303000F0FF08F7
:102CA00041461648FFF7A0FE3C2239461348FFF77D
:102CB000D3FEBDE8F08110B5044664B189210F4808
:102CC000FFF792FE9A210D48FFF78EFEAB210B48CD
:102CD000FFF78AFE0BE0AB210848FFF785FEBC2119
:102CE0000648FFF781FECD210448FFF77DFE10BDA9
:102CF000000C0240A060024022BE002000440040C0
:102D0000480100208096980040420F00A0860100F4
:102D1000704710B5FE4890ED001BB0EE410AF0EE92
:102D2000610A51EC100B04F0B7FAFA49C861F8488F
:102D300090ED021BB0EE410AF0EE610A51EC100B6F
:102D400004F0AAFAF3490860F14890ED041BB0EED4
:102D5000410AF0EE610A51EC100B04F09DFAED49C6
:102D60004860EB4890ED061BB0EE410AF0EE610AB8
:102D700051EC100B04F090FAE6498860E44890EDBD
:102D8000081BB0EE410AF0EE610A51EC100B04F0A2
:102D900083FAE149C861DE4890ED0A1BB0EE410AB2
:102DA000F0EE610A51EC100B04F076FADA49086093
:102DB000D74890ED0C1BB0EE410AF0EE610A51ECE1
:102DC000100B04F069FAD4494860D14890ED0E1B0D
:102DD000B0EE410AF0EE610A51EC100B04F05CFA1F
:102DE000CD49886010BD10B5C94890ED001BB0EE0C
:102DF000410AF0EE610A51EC100B04F04DFAC7499C
:102E0000C861C34890ED021BB0EE410AF0EE610AC2
:102E100051EC100B04F040FAC0490860BC4890ED3A
:102E2000041BB0EE410AF0EE610A51EC100B04F005
:102E300033FABA494860B64890ED061BB0EE410A35
:102E4000F0EE610A51EC100B04F026FAB3498860E9
:102E5000AF4890ED081BB0EE410AF0EE610A51EC6C
:102E6000100B04F019FAAE49C861A94890ED0A1B8D
:102E7000B0EE410AF0EE610A51EC100B04F00CFACE
:102E8000A7490860A24890ED0C1BB0EE410AF0EE95
:102E9000610A51EC100B04F0FFF9A14948609C480D
:102EA00090ED0E1BB0EE410AF0EE610A51EC100BF2
:102EB00004F0F2F99A49886010BD10B5944890ED7D
:102EC000001BB0EE410AF0EE610A51EC100B04F069
:102ED0005DFC9449096808608D4890ED020B9148AB
:102EE000006880ED020B8A4890ED040B8D48006865
:102EF00080ED040B864890ED060B8A48006880ED53
:102F0000060B834890ED081BB0EE410AF0EE610A13
:102F100051EC100B04F03AFC8349096808607C48C6
:102F200090ED0A0B8048006880ED020B784890ED28
:102F30000C0B7D48006880ED040B754890ED0E0B7E
:102F40007948006880ED060B10BD10B5704890ED13
:102F5000001BB0EE410AF0EE610A51EC100B04F0D8
:102F60009BF97249C8616A4890ED021BB0EE410AB4
:102F7000F0EE610A51EC100B04F08EF96B49086019
:102F8000634890ED041BB0EE410AF0EE610A51EC8B
:102F9000100B04F081F9654948605D4890ED061B0F
:102FA000B0EE410AF0EE610A51EC100B04F074F936
:102FB0005E49886010BD2DE9F041002740F225519F
:102FC0005B4802F0F9FC002879D05948FFF723FD4F
:102FD000C7B2584807710068642871DA554801790A
:102FE00002680068401C534B1860981D8154801F74
:102FF000006829287DDB184600682938991D085C7F
:10300000FF2876D1881F00682838085C5528F8D139
:10301000881F00682738085CAA28F2D1881F00683A
:103020002638085C1028ECD10020891F81F86B003D
:1030300008460068A0F129052C4609E03D4890F8B3
:103040006B10801D005D08443A4981F86B00641CD8
:1030500038480068401EA042F0DC364890F86B20EB
:103060000068401E3349891D085C82424FD100240C
:1030700047E005EB8400001D2E49891D085C02060F
:1030800005EB8401491D2B48801D405C02EB00428A
:1030900005EB8401891D2748801D405C02EB00225E
:1030A00005EB8400C01D2349891D085C1618B6F184
:1030B000004F06D36FF00040A0EB060802E0D9E015
:1030C000D9E0B046404604F0BEFB114A02EBC40210
:1030D00003C20F4800EBC40090ED001BB0EE410AA4
:1030E000F0EE610A9FED141B53EC112B51EC100B09
:1030F00000E071E004F0B6F9054A02EBC40203C235
:10310000641C092CB5DB024890ED101B18E05FE051
:1031100050BE002090BD0020B4BD002048BD00205E
:103120006CBD00202C00002030000020D8BD002005
:103130000044004098BE0020000000000000F04065
:10314000B0EE410AF0EE610A9FED4E1B53EC112BDD
:1031500051EC100B04F0DEFA02D1FFF7F6FE37E077
:103160004A4890ED101BB0EE410AF0EE610A9FED67
:10317000481B53EC112B51EC100B04F0CBFA02D18D
:10318000FFF79BFE24E0414890ED101BB0EE410A92
:10319000F0EE610A9FED401B53EC112B51EC100B2C
:1031A00004F0B8FA02D1FFF71EFE11E0374890EDA7
:1031B000101BB0EE410AF0EE610A9FED391B53EC93
:1031C000112B51EC100B04F0A5FA01D1FFF7A1FD72
:1031D00000203549086051E03348006807284DDB7E
:1031E00031480068C01F3049891D085CFF2845D15F
:1031F000881F0068801F085C55283FD1881F006821
:10320000401F085CAA2839D1881F0068001F085C8D
:10321000772833D10020891F81F86B0008460068A9
:10322000C51F2C4609E0204890F86B10801D005DFA
:1032300008441D4981F86B00641C1B480068401E4F
:10324000A042F0DC184890F86B200068401E164938
:10325000891D085C82420AD18A1F1268921E0B46A1
:10326000995C9A1F1268D21E985CFFF751FD0020EE
:103270000D49086002E000200B490860BDE8F081BC
:1032800070470000000000000000264050BE0020F3
:1032900000000000000036400000000000804040B8
:1032A000000000000000464098BE00201CB501212F
:1032B000042002F003F80F20009000208DF8040095
:1032C00003208DF8050001208DF807006946794834
:1032D00001F056FD3020009001208DF80400002000
:1032E0008DF8060003208DF8050001208DF80700F9
:1032F0006946704801F044FD0121082001F0DEFF1D
:103300000320009001208DF8040000208DF80600B5
:1033100003208DF8050001208DF8070069466648F6
:1033200001F02EFD1CBD30B1012812D002281ED0A4
:10333000032838D129E002215F4A1A321180012185
:10334000921E118010215B4A1832118020211180B9
:103350002AE00121584A1A3211800221921E11805E
:103360001021544A18321180202111801CE02021A4
:10337000504A1A3211801021921E118001214E4AAA
:1033800018321180022111800EE01021494A1A32B0
:1033900011802021921E11800121474A183211808C
:1033A0000221118000E000BF00BF704701B59DF809
:1033B00001009DF80010414A02EB410148709DF860
:1033C000000002F8100008BDF8B500246FE0A0B2BC
:1033D000FFF7A9FF37481030006800F00F000F28F2
:1033E00055DA012700254FE032481030006800F020
:1033F0000F00384080BB780047B205EB84003049AD
:1034000051F82000401C05EB84012D4A42F82100B0
:1034100005EB8400114651F820000A2803D84FF02C
:10342000FF3501272EE0002606E00020234901EBAE
:1034300046014870701C46B2102EF6DBC5F1030041
:1034400000EB8400C0B28DF8000001208DF801006F
:103450000098FFF7ABFF14E0FFE7C5F1030000EBB6
:103460008400C0B28DF8000000208DF8010005EB4B
:103470008401134A42F821000098FFF797FF780073
:1034800047B200BF681C45B2042DADDB0DE0A000C3
:1034900046B206E00020094901EB46014870701C65
:1034A00046B2A000001DB042F4DC601C44B2042C03
:1034B0008DDBF8BD00080240000C024004BF002074
:1034C00024BF002070B500240025FFF77DFF00BF5A
:1034D00021E0724800EB4400407801280DD170488B
:1034E0000088012809D100206D4908806B4911F836
:1034F00014106C4A52F821008047684800EB4400E1
:10350000407830B9681CC5B2102D02D10120644941
:103510000880601CC4B2102CDBDB70BD10B501202C
:1035200061490870FDF7A2FF60A200210846FDF77F
:1035300018FD10BD10B502205B490870FDF796FF1D
:103540005BA200210846FDF70CFD10BD10B503205D
:1035500055490870FDF78AFF56A200210846FDF77D
:1035600000FD10BD10B501204F49C870FDF77EFF6A
:1035700051A200210846FDF7F4FC10BD10B504204F
:1035800049490870FDF772FF4CA200210846FDF77B
:10359000E8FC10BD10B5052043490870FDF766FF33
:1035A00047A200210846FDF7DCFC10BD10B506203F
:1035B0003D490870FDF75AFF42A200210846FDF779
:1035C000D0FC10BD10B501203749C871FDF74EFF82
:1035D0003DA200210846FDF7C4FC10BD10B5012036
:1035E00031490872FDF742FF38A200210846FDF775
:1035F000B8FC10BD10B501202B494872FDF736FF0D
:1036000033A200210846FDF7ACFC10BD10B5012027
:1036100025498872FDF72AFF2EA200210846FDF7F2
:10362000A0FC10BD10B501201F49C872FDF71EFF98
:1036300029A200210846FDF794FC10BD10B5012019
:1036400019490873FDF712FF24A200210846FDF76F
:1036500088FC10BD10B5012013494873FDF706FF23
:103660001FA200210846FDF77CFC10BD10B501200B
:103670000D498873FDF7FAFE1AA200210846FDF7EE
:1036800070FC10BD10B501200749C873FDF7EEFEB0
:1036900016A200210846FDF764FC10BD04BF0020FF
:1036A000A2000020A400002064BF00203100000020
:1036B0003200000033000000410000003400000030
:1036C0003500000036000000420000003700000016
:1036D0003800000039000000430000002A0000000C
:1036E00030000000456E7465720000004400000068
:1036F0003EB504460D460121802001F028FE0195CB
:10370000A0B2ADF800000020ADF80800ADF802004E
:103710006946684802F0A9FF0121664803F02EF8C7
:103720003EBD00B585B00121102001F0C7FD01218B
:10373000880301F01DFE0420039001208DF8100085
:1037400000208DF8120003208DF8110001208DF863
:10375000130003A9584801F013FB0421564801F057
:103760008DFB0820039000208DF8100003208DF8B9
:10377000110001208DF8130003A94F4801F000FB50
:103780000321042001F0FFFE0820019000208DF8A5
:10379000080010208DF8090001208DF80A0001A80A
:1037A00002F0FCFB4FF4A06001F0F4F909208DF861
:1037B000000000208DF8010001208DF802008DF836
:1037C0000300684601F0EBF905B000BD10B501201B
:1037D0003A490860142001F0ABF800203849C1F8DC
:1037E000880210BD10B52DED068B3648006804F038
:1037F0002AF841EC1A0B9FED340B53EC102B04F01C
:1038000075F841EC190B9FED320B53EC102B03F0C4
:1038100029FE41EC180B03F0E9FF80B22E49086045
:10382000084600682D49086100240EE02B49601C01
:1038300051F8200041F82400084650F82400264999
:103840000968084424490860641C042CEEDB224803
:10385000008880B2052190FBF1F01F490860BDECA3
:10386000068B10BD10B5082002F0EFFB00B3082155
:10387000114801F0E7FA012807D100210D4802F0B4
:103880003DFF01210B4802F079FF08210A4801F0B1
:10389000D9FA50B90021074802F070FF054802F03C
:1038A00031FF08490860FFF79DFF082002F0D8FBB0
:1038B00010BD0000001C004000100240880242427F
:1038C00000004242E40000203E7958A8355D3140B6
:1038D0000000000000005940E800002074BF0020F4
:1038E00010B5044600BF0221FE4802F0E1FD0028A9
:1038F000F9D02146FB4802F092FD00BF0121F948B2
:1039000002F0D6FD0028F9D0F64802F085FDC0B2DD
:1039100010BD00B587B00121022001F0CFFC0121CC
:10392000880301F014FD4FF46040059002208DF8EB
:10393000180000208DF81A0003208DF819000120CE
:103940008DF81B0005A9E84801F01AFA05220D219F
:10395000E54801F0A0FA05220E21E34801F09BFAA8
:1039600005220F21E04801F096FA0121880301F0B9
:1039700043FD00214FF4804001F03EFD0020ADF8F2
:1039800000004FF48270ADF802000020ADF8040092
:103990000220ADF806000120ADF808004002ADF8A5
:1039A0000A001020ADF80C000020ADF80E00072032
:1039B000ADF810006946CB4802F0B6FB0121C948BA
:1039C00002F0ACFCFF20FFF78BFF07B000BD10B585
:1039D0000446C44800884FF6C7710840C1490880B2
:1039E00008460088204308800121BE4802F096FC6A
:1039F00010BD00B585B00021BA4802F08FFC002050
:103A0000ADF800004FF48270ADF802000020ADF870
:103A10000400ADF80600ADF808004FF40070ADF8F2
:103A20000A001020ADF80C000020ADF80E000720B1
:103A3000ADF810006946AB4802F076FB0121A948B9
:103A400002F06CFC05B000BD1CB501210A2001F09C
:103A500035FC4FF44060009001208DF804000020F8
:103A60008DF8060003208DF8050001208DF8070071
:103A700069469E4801F084F94FF480400090002090
:103A80008DF8040001208DF807006946974801F081
:103A900077F9FFF73EFFFFF7ACFF0020944908607D
:103AA00001209449C1F8AC021CBD2DE9F041074644
:103AB0000D46164600208E49091D08603846FFF75E
:103AC0000FFF8046002405E0FF20FFF709FF28557F
:103AD000601CC4B2B442F7DB01208549091D0860AF
:103AE0004046BDE8F0812DE9F04107460C461546F9
:103AF00000207F49091D08603846FFF7F1FE804627
:103B0000002605E014F8010BFFF7EAFE701CC6B2B0
:103B1000AE42F7DB01207649091D08604046BDE84A
:103B2000F0811CB574A103C9CDE900011020FFF795
:103B30004EFF052269463020FFF7D5FF0522694672
:103B40001020FFF7B2FF002406E01DF80400A528AE
:103B500000D003E0601CC4B2052CF6DB00BF052CCE
:103B600001D001201CBD0020FCE770B505460C46C5
:103B700000205F49091D08602846FFF7B1FE064690
:103B80002046FFF7ADFE01205A49C1F8AC0230468D
:103B900070BD70B5044600205549091D08602046D7
:103BA000FFF79EFEFF20FFF79BFE054601205149CF
:103BB000C1F8AC02284670BD70B505461020FFF76D
:103BC00006FF00204A49086004222946A020FFF78A
:103BD0008AFF01204749C1F8A80200BF4448703855
:103BE00000680028FAD10720FFF7D3FF04462146DA
:103BF0002720FFF7BAFF04F0100028B1FF21E120D1
:103C0000FFF7B3FF102070BD04F0200008B12020A2
:103C1000F9E7FF20F7E770B504461020FFF7D7FE5D
:103C20000720FFF7B6FF054629462720FFF79DFF2F
:103C300005F0400050B1042221466120FFF735FF16
:103C4000FF21E220FFF791FF002070BD0120FCE77B
:103C500010B5002026490860052229492A20FFF7CF
:103C600042FF01212120FFF780FF01212220FFF7E1
:103C70007CFF28212520FFF778FF04213120FFF762
:103C800074FF0F212620FFF770FF0F212020FFF780
:103C90006CFF01201749C1F8A80210BD10B5002023
:103CA00013490860052217493020FFF71CFF052241
:103CB00013492A20FFF717FF01212120FFF755FFA5
:103CC00001212220FFF751FF1A212420FFF74DFF89
:103CD00028212520FFF749FF0F212620FFF745FF68
:103CE0000E2111E00038004000040240000C0240A8
:103CF000A882414200804142A5A5A5A5A5000000DB
:103D0000E5850008E08500082020FFF72EFF012050
:103D10000149C1F8A80210BD0080414210B586B02B
:103D200004460121082001F0C9FA0121880401F0AC
:103D30000EFB072208213F4801F0ADF807220921B8
:103D40003C4801F0A8F84FF44070049002208DF830
:103D5000150000208DF8160001208DF817000220B4
:103D60008DF8140004A9334801F00AF84FF4E1304B
:103D700000900020ADF80400ADF80600ADF8080092
:103D8000ADF80C000C20ADF80A006946204601F0A1
:103D90009AFC0121204601F01EFD4021204601F041
:103DA00002FE012240F22551204601F0CAFD012108
:103DB000082001F083FA4FF40040049002208DF8AF
:103DC000150000208DF8160001208DF817008DF8E1
:103DD000140004A9174800F0D3FF06B010BD10B5B9
:103DE00040F22551144801F0E7FD08B3124801F0F4
:103DF00021FD1249124A1278885408461049097860
:103E0000405C582804D10D49087000200C49087006
:103E10000B480078401C0A490870084600781028B2
:103E200006D10020087007480068401C054908605A
:103E300010BD0000000C02400048004088BF002078
:103E4000EC000020F00000209FEDFE0AFE4880ED0F
:103E50000B0A9FEDFE0A80ED000A9FEDFD0A80ED42
:103E6000020A9FEDFC0A80ED010A9FEDFA0A80ED3F
:103E7000110A9FEDF80A80ED0F0A9FEDF60A80ED1A
:103E8000100A7047F44890ED070AEF4880ED0B0ADE
:103E9000F14890ED000AEC4880ED000AEE4890ED04
:103EA000010AE94880ED020AEB4890ED020AE64873
:103EB00080ED010A70479FEDE70AE84981ED000AAD
:103EC0009FEDE40AE64981ED000A9FEDE20AE5492B
:103ED00081ED000ADC4991ED090A81ED0A0A00EE44
:103EE000100AB8EE400ADFEDE00A80EE201A9FEDDE
:103EF000DF0A21EE000A81ED090ADD4991ED000A91
:103F0000DC4981ED000AD04991ED0B0AD1ED090A97
:103F100030EE600AD64981ED000ACB4991ED000AE6
:103F2000D349D1ED000A20EE200AF2EE040A20EE79
:103F3000200ACA4981ED000ACD4991ED000ACD4918
:103F4000D1ED000A30EE600ABF49D1ED020A20EE41
:103F5000200AF2EE040A20EE200AC24981ED000A8E
:103F6000B94991ED010AC249D1ED000A20EE200ABB
:103F7000F2EE040A20EE200AB94981ED000AB249A6
:103F800091ED0D0AB649D1ED000A30EE200AAE4996
:103F900081ED0D0A91ED0D0ADFEDB70AB4EEE00AEE
:103FA000F1EE10FA04DD9FEDB40A81ED0D0A0DE08B
:103FB000A54991ED0D0ADFEDB10AB4EEE00AF1EE8C
:103FC00010FA03D29FEDAD0A81ED0D0AA34991EDE0
:103FD000000AA449D1ED000A30EE200AA049D1ED33
:103FE000000A30EE200A984981ED080A91ED080A8E
:103FF00081ED0E0A7047944880ED0B0A70477047B8
:1040000010B59148C06890490969401A8E49886185
:104010009B48007838B9B3EE040A9A4880ED070A45
:104020000120974908708848C06840F2AA21884258
:1040300008DA85488069002804DAB3EE090A914855
:1040400080ED070A8048C06840F65551884208DD77
:104050007D488069002804DDB2EE0E0A894880EDB3
:10406000070AFDF79CFF8748D0ED030AB0EE600A0F
:10407000DFED780AFEF7D2FA10BD10B57248C068BD
:1040800071490969401A704988617F48007838B9D8
:104090009FED7E0A7B4880ED070A01207A4908706F
:1040A0006948C068B0F5806F08DA67488069002801
:1040B00004DAB3EE0E0A734880ED070A6248C0685E
:1040C000B0F5406F08DD60488069002804DA9FED94
:1040D000700A6C4880ED070A5B48C068B0F5406F15
:1040E00009DD59488069002805DD9FED6A0A6548A9
:1040F00080ED070A0DE05448C068B0F5806F08DA1B
:1041000051488069002804DD9FED630A5D4880ED19
:10411000070AFDF744FF5B48D0ED030AB0EE600AE2
:10412000DFED4C0AFEF77AFA10BD10B59FED490A93
:104130005A4880ED030A4448C068B0F5076F0CDCAC
:104140004148C06840F28E71884206DD9FED540AF6
:10415000524880ED000AFDF7A2FD3B48C06840F6DA
:104160005511884220DA3848C06840F2AA61884276
:104170001ADD9FED4C0A494880ED000A32498989D1
:1041800088B2FFF798FE3048D0ED0E0AF1EE600AD3
:10419000424890ED031A70EEC10AB0EE600ADFEDFE
:1041A0002D0AFEF73BFA89E02748C06840F638211F
:1041B00088421FDA2448C068B0F5B96F1ADB9FED5A
:1041C0003A0A364880ED000A1F49898988B2FFF70C
:1041D00072FE1D48D0ED0E0AF1EE600A2F4890EDF8
:1041E000031A70EEC10AB0EE600ADFED1A0AFEF79C
:1041F00015FA63E01448C06840F61C31884257DA6B
:104200001148C06840F2E341884251DD9FED270A22
:10421000224880ED000A0C49898988B2FFF74BFEDD
:104220000948D0ED0E0AF1EE600A1C4890ED031A21
:1042300070EEC10AB0EE600ADFED060AFEF7EEF995
:104240003CE000000000344398BF002000007A44A6
:1042500000401C46000000006CBD00200001002052
:104260000401002008010020000080450000B44344
:10427000FC000020F800002000D0844600D084C656
:10428000F400002090BD0020F500002000007042E6
:104290000000484200008C420000B44248BD0020AB
:1042A0000000484400002F45000096450080D4459A
:1042B0005FED180A1FED190AFEF7B0F910BD10B531
:1042C000F948C068B0F5806F04DBF748C068B0F506
:1042D000406F56DDF448C068F3490969401AF24955
:1042E0008861F248007838B91FED180AF04880ED6F
:1042F000070A0120ED490870EB48C068B0F5806FEF
:1043000008DAE9488069002804DA9FEDEA0AE848FB
:1043100080ED070AE448C068B0F5406F08DDE24868
:104320008069002804DA1FED260AE14880ED070ABB
:10433000DD48C068B0F5406F09DDDB4880690028C2
:1043400005DD1FED2C0ADA4880ED070A0DE0D6489E
:10435000C068B0F5806F08DAD3488069002804DDB2
:104360009FEDD50AD24880ED070AFDF718FED04828
:10437000D0ED030AB0EE600A5FED4A0AFEF74EF98F
:104380009AE01FED4C0ACD4880ED030AC648C0688C
:10439000B0F5076F07DCC448C06840F28E718842F0
:1043A00001DDFDF77CFCC048C06840F6551188422D
:1043B00025DABD48C06840F2AA6188421FDD1FEDC2
:1043C000470ABE4880ED000A1FED5F0AB64880ED3F
:1043D000020A0146898988B2FFF76DFDB248D0ED27
:1043E0000E0AF1EE600AB54890ED031A70EEC10AAC
:1043F000B0EE600A5FED690AFEF710F95CE0AA48CA
:10440000C06840F63821884224DAA748C068B0F571
:10441000B96F1FDB9FEDAA0AA84880ED000A1FEDC7
:10442000740AA14880ED020A0146898988B2FFF723
:1044300042FD9D48D0ED0E0AF1EE600A9F4890EDD6
:10444000031A70EEC10AB0EE600A5FED7E0AFEF755
:10445000E5F831E09448C06840F61C31884225DA1E
:104460009148C06840F2E34188421FDD9FED950A04
:10447000924880ED000A9FED940A8B4880ED020A75
:104480000146898988B2FFF716FD8748D0ED0E0AEC
:10449000F1EE600A894890ED031A70EEC10AB0EEA1
:1044A000600A5FED940AFEF7B9F805E05FED970A40
:1044B0001FED980AFEF7B2F810BD10B57A48C06833
:1044C000B0F5806F04DB7848C068B0F5406F56DD0A
:1044D0007548C06874490969401A7349886173480E
:1044E000007838B91FED970A714880ED070A01205E
:1044F0006E4908706C48C068B0F5806F08DA6A4889
:104500008069002804DA9FED6B0A694880ED070A8C
:104510006548C068B0F5406F08DD634880690028D1
:1045200004DA1FEDA50A624880ED070A5E48C068FC
:10453000B0F5406F09DD5C488069002805DD1FED9E
:10454000AB0A5B4880ED070A0DE05748C068B0F53C
:10455000806F08DA54488069002804DD9FED560A10
:10456000534880ED070AFDF71AFD5148D0ED030AC4
:10457000B0EE600A5FEDC90AFEF750F8AEE01FED3D
:10458000CB0A4E4880ED030A4748C068B0F5076F74
:1045900007DC4548C06840F28E71884201DDFDF7B6
:1045A0007EFB4148C06840F65511884225DA3E48F6
:1045B000C06840F2AA6188421FDD1FEDC60A3F486D
:1045C00080ED000A1FEDDE0A374880ED020A014641
:1045D000898988B2FFF76FFC3348D0ED0E0AF1EEFF
:1045E000600A364890ED031A70EEC10AB0EE600A18
:1045F0005FEDE80AFEF712F870E02B48C06840F65D
:104600003821884224DA2848C068B0F5B96F1FDB2A
:104610009FED2B0A294880ED000A1FEDF30A22487E
:1046200080ED020A0146898988B2FFF744FC1E48E2
:10463000D0ED0E0AF1EE600A204890ED031A70EEFC
:10464000C10AB0EE600ADFED210AFDF7E7FF45E0A1
:104650001548C06840F61C31884239DA1248C068F3
:1046600040F2E341884233DD9FED160A134880EDA6
:10467000000A9FED150A0C4880ED020A014689895F
:1046800088B2FFF718FC0848D0ED0E0AF1EE600A78
:104690000A4890ED031A70EEC10AB0EE600ADFED31
:1046A0000B0AFDF7BBFF19E098BF0020F6000020C1
:1046B00090BD0020000000420000B04248BD002034
:1046C0000040B5450080094600007A450000000022
:1046D0005FED020A1FED030AFDF7A0FF10BD10B544
:1046E0002DED0A8B1FED070A754880ED030A75480A
:1046F00090ED050A80ED060A90ED060A10EE101AFC
:10470000084603F0DBFA41EC190B6D48B0F92200C2
:1047100000EE100AB8EEC00A10EE101A084603F0B8
:10472000CDFA41EC1C0B9FED680B53EC102B03F002
:10473000DDF841EC1B0B9FED660B53EC102B02F0E8
:1047400091FE41EC1A0B53EC192B02F0D7FD41EC12
:10475000180B02F0A1FD5B494861084690ED050A7F
:10476000DFED5D0AB4EEE00AF1EE10FA05DB1FEDB5
:10477000290A534880ED070A04E0B6EE000A5048C3
:1047800080ED070A00204E4948845448C068B0F5BF
:10479000076F10DC5148C06840F28E7188420ADD14
:1047A0009FED4F0A464880ED010A9FED4E0A80EDCD
:1047B000000AFDF774FA4948C06840F6551188426E
:1047C00020DA4648C06840F2AA6188421ADD9FEDAF
:1047D000460A3B4880ED000A4049898988B2FFF7C4
:1047E0006AFB3E48D0ED0E0AF1EE600A344890EDC7
:1047F000031A70EEC10AB0EE600A5FED4C0AFDF7D5
:104800000DFF52E03548C06840F6382188421FDA73
:104810003248C068B0F5B96F1ADB9FED340A2848FA
:1048200080ED000A2D49898988B2FFF744FB2B48A7
:10483000D0ED0E0AF1EE600A214890ED031A70EEF9
:10484000C10AB0EE600A5FED5F0AFDF7E7FE2CE0FB
:104850002248C06840F61C31884220DA1F48C068F0
:1048600040F2E34188421ADD9FED210A144880EDB1
:10487000000A1A49898988B2FFF71DFB1748D0ED55
:104880000E0AF1EE600A0E4890ED031A70EEC10AAE
:10489000B0EE600A5FED730AFDF7C0FE05E05FED64
:1048A000750A1FED760AFDF7B9FEBDEC0A8B10BD47
:1048B00010B510490978104A52F82100804710BD00
:1048C00048BD002090BD0020000000000080764020
:1048D00000000000000ABE400000B44398BF002062
:1048E0000000FA440000484400002F4500009645AF
:1048F0000080D44564BF00201001002010B504469C
:104900006FF0040000F098F9E11704EB5171C1F366
:10491000C701394A11701046007800EB4001C1EB25
:10492000C0104FF6FF7101EAC0003449088010BD85
:104930000146314A12784A434FF0E0235A6100227F
:104940009A611A46126942F001021A6100BF4FF0E3
:10495000E022106900F001021AB100F48032002A4E
:10496000F5D04FF0E022126922F001024FF0E0236F
:104970001A6100229A6170470146204A12884A4310
:104980004FF0E0235A6100229A611A46126942F000
:1049900001021A6100BF4FF0E022106900F001022D
:1049A0001AB100F48032002AF5D04FF0E0221269EB
:1049B00022F001024FF0E0231A6100229A61704751
:1049C00070B504464FF4077094FBF0F0C6B24FF494
:1049D000077094FBF0F100FB114085B205E04FF445
:1049E0000770FFF7C9FF701EC6B2002EF7D115B1D0
:1049F0002846FFF7C1FF70BD2C0100202E010020CA
:104A0000014600BF704700BF4E4A128802F04002C4
:104A1000002AF9D0C2B24B4B9A80704710B588B0CB
:104A200004460121084600F049FC0121102000F055
:104A30009FFC07220921444800F02DFA07220A2191
:104A4000414800F028FA4FF4C060069002208DF82B
:104A50001C008DF81D0000208DF81E0001208DF82F
:104A60001F0006A9384800F08BF902940020ADF829
:104A70000C00ADF80E00ADF81000ADF814000C20DD
:104A8000ADF8120002A92F4800F01DFE01212D48AB
:104A900000F0A1FE40212B4800F085FF012240F2EA
:104AA0002551284800F04DFF25208DF804000320F3
:104AB0008DF805008DF8060001208DF8070001A88B
:104AC00000F06DF808B010BD10B540F225511D483A
:104AD00000F072FF10B31B4800F0ACFEC4B21B48DC
:104AE000008800F40040C8B91848008800F48040ED
:104AF00060B10A2C03D000201449088020E013483C
:104B0000008840F400401149088019E00D2C06D1BE
:104B10000E48008840F480400C49088010E00B48A3
:104B20000088C0F30D000A490C5408480088401C56
:104B30000649088008460088C72801DD0020088053
:104B400010BD0000001001400000024034010020B0
:104B5000E8BF00200948804709480047FEE7FEE714
:104B6000FEE7FEE7FEE7FEE7FEE7FEE7FEE7FEE71D
:104B700004480549054A064B7047000081040008B7
:104B80008901000810C1002010C7002010C30020B8
:104B900010C3002032490143324A1160704770B59A
:104BA000002100230F22C4781CB32E4C246804F487
:104BB000E064C4F5E064C4F30721C1F10404E3B286
:104BC0000A4144789C40E1B28478144021430C07A8
:104BD000210E254C05786155047804F01F05012449
:104BE000AC4005786D11AD0005F1E025C5F8004138
:104BF00009E0047804F01F050124AC401B4D067841
:104C0000761145F8264070BD194A0A400243154BFB
:104C10001B1F1A60704739B1124A121D12680243F5
:104C2000104B1B1D1A6006E00E4A121D12688243CB
:104C30000C4B1B1D1A607047042808D14FF0E0216F
:104C4000096941F004014FF0E022116107E04FF0E3
:104C5000E021096921F004014FF0E0221161704761
:104C60000000FA050CED00E000E400E080E100E067
:104C700080FFFF1F10B504469848844208D10121E7
:104C8000084600F086FB0021012000F082FB76E060
:104C90009348844208D10121022000F07AFB0021D0
:104CA000022000F076FB6AE08E48844208D10121A0
:104CB000042000F06EFB0021042000F06AFB5EE09F
:104CC0008948844208D10121082000F062FB0021BC
:104CD000082000F05EFB52E08448844208D10121A4
:104CE000102000F056FB0021102000F052FB46E09F
:104CF0007F48844208D10121202000F04AFB002196
:104D0000202000F046FB3AE07A48844208D1012195
:104D1000402000F03EFB0021402000F03AFB2EE056
:104D20007548844208D10121802000F032FB002127
:104D3000802000F02EFB22E07048844208D101213F
:104D4000801500F026FB0021A01500F022FB16E0E4
:104D50006B48844208D10121401500F01AFB002164
:104D6000601500F016FB0AE06648844207D1012175
:104D7000001500F00EFB0021201500F00AFB10BD0D
:104D8000F0B50A4600210023002400BF3DE00125C4
:104D900005FA01F3156805EA03049C4234D105685D
:104DA0004F000326BE40B543056015794E00B5405F
:104DB0000668354305601579012D02D01579022D5D
:104DC00016D185684F000326BE40B54385605579EE
:104DD0004E00B540866835438560456801268E40A3
:104DE000B5434560456896798E40B6B23543456017
:104DF000C5684F000326BE40B543C560D5794E0057
:104E0000B540C6683543C560491C1029BFD3F0BD05
:104E10004FF6FF7101600021017141718171C17113
:104E2000704708B54FF480320092009A0A4300920E
:104E3000009AC261C161009AC261C2690092C269EE
:104E4000009208BD0246002013690B400BB10120FF
:104E500000E0002070470146086980B270470246B2
:104E6000002053690B400BB1012000E00020704787
:104E70000146486980B2704701837047418370479B
:104E80000AB1018300E04183704741617047426984
:104E90004A4042617047F0B5002300244D07ED0EF3
:104EA00002FA05F3CE1000F1200555F826504E0702
:104EB000F70E0F26BE40B543CF1000F1200646F88E
:104EC0002750CE1000F1200555F8265045EA03047E
:104ED000CE1000F1200545F82640F0BD000002404C
:104EE0000004024000080240000C02400010024092
:104EF0000014024000180240001C02400020024042
:104F00000024024000280240F948006840F00100F7
:104F1000F74908600020F64908310860F448006845
:104F2000F4490840F2490860F348091D0860F34855
:104F3000EF4984310860F0481038091D0860EC48DA
:104F4000006820F48020EA4908600020E8490C311C
:104F50000860E7498C31086070470021E44A921CE0
:104F6000117011460870704710B5014600220023E9
:104F700000204A11012A02D1DD4C236808E0022AF0
:104F800003D1DB4C7034236802E0D94C74342368BD
:104F900001F01F02012494401C400CB1012000E0EC
:104FA000002010BD38B5002000900024002500BF6F
:104FB0003120FFF7D9FF05460098401C009000986B
:104FC000B0F5A04F01D0002DF2D03120FFF7CCFF7B
:104FD00008B1012400E00024204638BD014600202D
:104FE000C34A106820F0F80040EAC1001060704722
:104FF000C349086070470021BD4A703211701170BA
:10500000012802D004280AD104E00121B84A7032F4
:10501000117005E00521B64A7032117000E000BF42
:1050200000BF7047B7490860704770B5049C41EAFB
:1050300082150126C6EB530645EA0645054345EAB7
:105040000465AB4E361D356070BDAD4908667047CE
:10505000820142EA0172A64B84331A607047A84964
:105060008866704710B5830143EA016343EA02731F
:105070009F4C8834236010BDA14908677047A04940
:10508000C864704702460020994B0833186820F026
:10509000EC6042EA01031843954B083318607047EF
:1050A00002460020924B0833186820F0784042EA0C
:1050B000010318438E4B08331860704701460020E7
:1050C0008B4A0832106820F00300084310607047D4
:1050D00087480830006800F00C0070470146002047
:1050E000834A0832106820F0F000084310607047CF
:1050F000014600207E4A0832106820F4E050084340
:105100001060704701460020794A0832106820F488
:10511000604040EAC10010607047F0B500210022F5
:105120000024022500260223714F08373F6807F04C
:105130000C0121B1042905D0082937D105E0724FAF
:10514000076036E0714F076033E0694F3F1D3F68ED
:10515000C7F38056664F3F1D3F6807F03F036EB1AF
:105160006A4FB7FBF3F7DFF888C10CF1040CDCF8E9
:1051700000C0CCF3881C07FB0CF40CE0624FB7FBBB
:10518000F3F7DFF86CC10CF1040CDCF800C0CCF3D1
:10519000881C07FB0CF4564F3F1D3F68C7F30147BF
:1051A0007F1C7D00B4FBF5F7076002E0564F0760F7
:1051B00000BF00BF4E4F08373F6807F0F0010909F4
:1051C000534F7A5C0768D7404760494F08373F68BC
:1051D00007F4E051890A4E4F7A5C4768D7408760F0
:1051E000434F08373F6807F46041490B484F7A5CEA
:1051F0004768D740C760F0BD002100F44072B2F5A7
:10520000407F0AD13A4A0832116821F4F811414A24
:1052100002401143364A08321160354A7032126832
:10522000C0F30B031A43324B70331A607047354991
:10523000443908607047334940390860704736493F
:105240000860704701460020294A8C32106820F01F
:105250001F004A1E1043264A8C32106070470146D8
:105260000020234A8C32106820F4F8504A1E40EA8D
:1052700002201F4A8C3210607047014600201C4AF1
:105280008C32106820F440100843106070470146CB
:105290000020174A8C32106820F440000843106048
:1052A000704701460020124A8C32106820F44030CA
:1052B00008431060704719490860704739B10C4ABB
:1052C0003032126802430A4B30331A6006E0084A53
:1052D000303212688243064B30331A607047F9B19E
:1052E000034A343212680243014B34331A601CE023
:1052F00000380240FFFFF6EA1030002400300020A2
:1053000000004742800E47420024F40000127A0059
:1053100036010020FFFCFF0F5C014742E0114742CD
:105320008F4A126882438E4B1A60704739B18C4A9B
:10533000121D126802438A4B1B1D1A6006E0884A40
:10534000121D12688243864B1B1D1A60704739B1CB
:10535000834A0C3212680243814B0C331A6006E018
:105360007F4A0C32126882437D4B0C331A607047BF
:1053700039B17B4A103212680243794B10331A60FC
:1053800006E0774A103212688243754B10331A6078
:10539000704739B1724A243A12680243704B243B79
:1053A0001A6006E06E4A243A126882436C4B243B32
:1053B0001A60704739B16A4A203A12680243684B52
:1053C000203B1A6006E0664A203A12688243644B2A
:1053D000203B1A60704739B1614A1C3A1268024397
:1053E0005F4B1C3B1A6006E05D4A1C3A1268824320
:1053F0005B4B1C3B1A60704739B1594A143A12682A
:105400000243574B143B1A6006E0554A143A12689F
:105410008243534B143B1A60704739B1504A103ADB
:10542000126802434E4B103B1A6006E04C4A103A99
:10543000126882434A4B103B1A60704739B1484AA0
:105440001C3212680243464B1C331A6006E0444A81
:105450001C3212688243424B1C331A60704739B1C8
:105460003F4A2032126802433D4B20331A6006E067
:105470003B4A203212688243394B20331A6070470E
:1054800039B1374A243212680243354B24331A604B
:1054900006E0334A243212688243314B24331A60C7
:1054A000704739B12E4A2C32126802432C4B2C33F0
:1054B0001A6006E02A4A2C3212688243284B2C33A9
:1054C0001A60704739B1264A303212680243244BC1
:1054D00030331A6006E0224A303212688243204B91
:1054E00030331A607047012808D11D493C310968E2
:1054F00041F008011A4A3C32116007E018493C317A
:10550000096821F00801164A3C321160704739B130
:10551000134A273A12780243114B273B1A7006E0D0
:105520000F4A273A127882430D4B273B1A70704777
:105530000B484030006840F08070094940310860F5
:10554000704701460020064A283A12680A400AB10C
:10555000012000E00020704701492639087070479B
:105560003438024010B501218803FFF756FF0021AF
:105570004FF48040FFF751FF10BD1C490860704791
:105580001B490862704730B500228B071C0F0F23A0
:1055900003FA04F2154B08338C1053F8243093436C
:1055A000124C08348D1044F8253023468C1053F8E3
:1055B00024308C07240F00FA04F423430B4C0834E6
:1055C0008D1044F8253030BD0949DC310860704742
:1055D000084908607047002004492031096801F437
:1055E000807109B1012000E00020704700380140BF
:1055F000000027420004274210B50446FA488442BE
:1056000008D101211020FFF708FF00211020FFF72B
:1056100004FF57E0F548844209D101214804FFF70F
:10562000EBFE00214FF40030FFF7E6FE4AE0F048C1
:10563000844209D101218804FFF7DEFE00214FF4E6
:105640008020FFF7D9FE3DE0EA48844209D10121DC
:10565000C804FFF7D1FE00214FF40020FFF7CCFE75
:1056600030E0E548844209D101210805FFF7C4FE76
:1056700000214FF48010FFF7BFFE23E0DF48844293
:1056800008D101212020FFF7C8FE00212020FFF7CC
:10569000C4FE17E0DA48844209D101218807FFF7E8
:1056A000ABFE00214FF08040FFF7A6FE0AE0D54890
:1056B000844207D101214005FFF79EFE00216005CD
:1056C000FFF79AFE10BD2DE9FF4705460E46002460
:1056D000A14600BFA046B08900B100BF2C8A24F4C7
:1056E0004054F08804432C82AC8941F20C6084431E
:1056F000B08831890843718908430443AC81AC8A7E
:1057000024F44074B0890443AC826846FFF705FD79
:10571000B548854202D0B948854202D1DDF80C90E7
:1057200001E0DDF80890A88900F4004040B109EBE1
:10573000C90000EB091031684900B0FBF1F707E040
:1057400009EBC90000EB091031688900B0FBF1F7E3
:105750006420B7FBF0F004012009642101FB1078FC
:10576000A88900F4004040B1322000EBC800B0FB33
:10577000F1F000F00700044308E0322000EB0810CD
:105780006421B0FBF1F000F00F0004432C81BDE870
:10579000FF874FF41651016000218180C180018193
:1057A0000C21418100218181704710B50246002003
:1057B000108A20F470600B884C8823438C88234324
:1057C000CC8823431843108210BD00210180418002
:1057D0008180C180704721B1828942F40052828168
:1057E00004E082894DF6FF731A4082817047028B74
:1057F00002F47F420283028B0A430283704721B185
:10580000828942F40042828103E08289C2F30E025F
:105810008281704721B1828A42F40062828204E070
:10582000828A4FF2FF731A4082827047C1F30802E6
:105830008280704701468888C0F308007047028A5A
:105840004FF6F0731A400282028A0A4302827047BE
:1058500021B1828942F00202828104E082894FF6FE
:10586000FD731A408281704782894FF2FF731A409C
:10587000828182890A4382817047028A4FF6DF73F0
:105880001A400282028A0A430282704721B1028AC8
:1058900042F48042028204E0028A4BF6FF731A400F
:1058A00002827047818941F001018181704721B1F5
:1058B000828A42F00802828204E0828A4FF6F773FD
:1058C0001A4082827047028BD2B20283028B42EA74
:1058D00001220283704721B1828A42F02002828233
:1058E00004E0828A4FF6DF731A408282704721B14A
:1058F000828A42F01002828204E0828A4FF6EF73BD
:105900001A4082827047828A4FF6FB731A40828265
:10591000828A0A438282704721B1828A42F002025F
:10592000828204E0828A4FF6FD731A4082827047B9
:105930001AB1838A0B43838202E0838A8B4383827A
:105940007047F0B50346002400260025002040F6ED
:105950006A17B94200D100BF1846C1F3421401F0E2
:105960001F06012707FA06F5012C01D10C3004E0CF
:10597000022C01D1103000E014301AB107682F4317
:10598000076002E00768AF430760F0BD02460020F1
:10599000B1F5007F00D100BF13880B400BB101208F
:1059A00000E00020704701F40072B2F5007F00D1E2
:1059B00000BFCA430280704770B50246002400232E
:1059C0000025002040F66A16B14200D100BFC1F3A5
:1059D000421501F01F03012606FA03F3012D13D12E
:1059E0009689334017E00000001001400044004059
:1059F00000480040004C00400050004000140140AE
:105A000000780040007C0040022D02D1168A33400D
:105A100001E0968A33400C12012606FA04F4168837
:105A2000344013B10CB1012000E0002070BD10B56E
:105A30000022002340F66A14A14200D100BF0A12DE
:105A400001249440A3B2DC43048010BD00206149CE
:105A50000860C8601F20486100208861C861086232
:105A60004862704700215B4A126844F201039A437E
:105A7000584B1A601A46116840F6F2729143028838
:105A800043881A4383881A43C3881A4303891A43F5
:105A900043891A4383891A4311434E4A1160704760
:105AA0000021018041808180C1800181418181810B
:105AB00070474188028841EA0241464A1162C18822
:105AC000828841EA0241434A5162704730B14149FC
:105AD000096841F004013F4A116005E03D49096849
